:100000000C94DE000C9406010C9406010C9406017D
:100010000C9406010C9406010C9406010C94060144
:100020000C9406010C9406010C94010A0C946F0BBD
:100030000C9406010C9406010C9406010C94060124
:100040000C9406010C94A2060C9406010C94060173
:100050000C9406010C9406010C9406010C942306E2
:100060000C9406010C9439080C9413080C940601A6
:100070000C9406010C9406010C9406010C940601E4
:100080000C9406010C9406010C9406010C940601D4
:100090000C9406010C9406010C9406010C940601C4
:1000A0000C9406010C9406010C9406017201750172
:1000B000640168016C0196019601960179017D0148
:1000C000810187018B019601910100000002000966
:1000D0000F0000030401000C0000000000000000FD
:1000E00000000000000000000000000000250028C3
:1000F000002B002E00310000000000240027002A01
:10010000002D00300004040404040304050202026C
:1001100002040302020202060606060606040402A0
:1001200002020404040802011040804010204080B4
:10013000408008020401804020100201108010203D
:10014000404020080B0002020201000904000001E7
:10015000020200000524001001052401010104240D
:10016000020605240600010705810310004009046A
:100170000100020A00000007050202400000070516
:1001800083024000000403090412010002EF02018F
:100190004041233680000101020301417264756908
:1001A0006E6F204C4C430041726475696E6F204C39
:1001B000656F6E6172646F0098109F0D11241FBEF1
:1001C000CFEFDAE0DEBFCDBF11E0A0E0B1E0E0E3C9
:1001D000F9E202C005900D92AA3CB107D9F723E0DD
:1001E000AAECB1E001C01D92AC37B207E1F710E014
:1001F000CDEDD0E004C02197FE010E945612CC3D07
:10020000D107C9F70E94C90D0C948B140C940000FF
:10021000CF93DF931F92CDB7DEB76983DC01ED91F9
:10022000FC910280F381E02D41E050E0BE016F5F60
:100230007F4F09950F90DF91CF91089583E08093D0
:10024000E9008091F200882319F08AE38093E800A6
:100250000895FC018485958597FD0BC09FB7F894A0
:1002600082E08093E9008091F2009FBF90E00196C8
:1002700008959FB7F89482E08093E9008091F2009E
:100280009FBF90E00895089580E090E00895362F94
:1002900090E0FC01E653FF4F4491FC01EC5DFE4F02
:1002A0002491FC01EB5FFE4F8491882309F451C037
:1002B0004423E1F150E0FA013197EF30F105B0F558
:1002C000EA5AFF4F0C945612909180009F7707C016
:1002D000909180009F7D03C090918000977F9093C4
:1002E000800024C094B59F7702C094B59F7D94BDD3
:1002F0001DC0909190009F7707C0909190009F7DC6
:1003000003C090919000977F909390000FC09091C0
:10031000C0009F7703C09091C0009F7D9093C00064
:1003200005C09091C200977F9093C200E82FF0E043
:10033000EE0FFF1FE751FF4FA591B4918FB7F894CF
:10034000EC91311103C020952E2301C02E2B2C934C
:100350008FBF08953FB7F8948091D0019091D1015B
:10036000A091D201B091D30126B5A89B05C02F3F23
:1003700019F00196A11DB11D3FBFBA2FA92F982FCB
:100380008827820F911DA11DB11DBC01CD0142E046
:10039000660F771F881F991F4A95D1F70895CF924E
:1003A000DF92EF92FF92FC01C12CD12C76018FEFEE
:1003B0009FEFC416D506E606F706E9F02191022E56
:1003C000000C330B322F22278227932728E0DC01F1
:1003D000AA0FBB1F97FF06C0CD0131E2832730E192
:1003E000932701C0CD01215091F72FEFC21AD20AF5
:1003F000E20AF20ADECFFF90EF90DF90CF900895EF
:10040000FC019581DF01A90FB11D16966C939F5FCA
:1004100095830895EF92FF920F931F93CF93DF93ED
:10042000CDB7DEB7C550D1400FB6F894DEBF0FBED2
:10043000CDBF7C018B011D821E8281E090E09A83FA
:1004400089831C821B826DE2CE0101960E9400020C
:10045000D701ED91FC910480F581E02DBE016F5F25
:100460007F4FC701099544E050E060E070E0CE01A5
:1004700007960E94CF014B815C8129813A81421706
:10048000530719F0282F892F922FEE81F0E036962E
:1004900021E030E02C0F3D1FE20FF31F808391839A
:1004A0008E818E5F8E83FE013796D801282F30E033
:1004B000AD01401B510B421753071CF491919D93C2
:1004C000F7CFCB5FDE4F0FB6F894DEBF0FBECDBFC8
:1004D000DF91CF911F910F91FF90EF900895EF92D0
:1004E000FF920F931F93CF93DF93CDB7DEB7C55025
:1004F000D1400FB6F894DEBF0FBECDBF7C018B019B
:100500001D821E8281E090E09A8389831C821B8277
:100510006DE1CE0101960E940002D701ED91FC91A0
:100520000480F581E02DBE016F5F7F4FC701099503
:1005300045E050E060E070E0CE0107960E94CF01F8
:100540004B815C8129813A814217530719F0282F8A
:10055000892F922FEE81F0E0369621E030E02C0FCB
:100560003D1FE20FF31F808391838E818E5F8E8308
:10057000FE013796D801282F30E0AD01401B510B0A
:10058000421753071CF491919D93F7CFCB5FDE4F39
:100590000FB6F894DEBF0FBECDBFDF91CF911F9194
:1005A0000F91FF90EF900895FB012081FC013581B0
:1005B000E30FF11D2683FC0125812F5F258308951C
:1005C0000F931F93CF93DF93EC018B01BC016E5F00
:1005D0007F4FC8010E94D402BE016D5F7F4FC801EA
:1005E0000E94D402BE016C5F7F4FC801DF91CF91A2
:1005F0001F910F910C94D4020F931F93CF93DF930D
:100600008C01EB01BC016E5F7F4FCE010E94D402D2
:10061000F801938184814A815B8128813981421765
:10062000530719F0292F982F822FED81F0E036968D
:10063000EC0FFD1F908381838D818E5F8D83F80188
:100640006581CE01DF91CF911F910F910C94000233
:100650000E946E0990E008950F931F93CF93DF934C
:100660001F92CDB7DEB78C01FC018485958597FF7D
:100670000EC0CE0101960E944409019719F4298108
:1006800030E002C02FEF3FEFF80135872487F801F3
:10069000848595850F90DF91CF911F910F910895DB
:1006A000CF93DF931F92CDB7DEB7FC01848595858C
:1006B00097FD05C02FEF3FEF358724870BC0CE0194
:1006C00001960E944409019719F4898190E002C0C3
:1006D0008FEF9FEF0F90DF91CF9108950E945C14F0
:1006E000CF93DF93FC01DB018481258130E090E032
:1006F000281B390B22303105C8F0EF01C80FD91F74
:100700008E819F8111969C938E932281338180816B
:1007100091812817390739F08C9111969C91119786
:100720009C9311968C9384818E5F8483CF01DF919B
:10073000CF910895FC0124813581321749F0E20FF1
:10074000F11D2681FB012083FC0124812F5F24837E
:1007500008950F931F93CF93DF93EC018B01BC019E
:100760006E5F7F4FC8010E949A03BE016D5F7F4F8D
:10077000C8010E949A03BE016C5F7F4FC801DF91E0
:10078000CF911F910F910C949A03FC012481358124
:10079000321749F0E20FF11D2681FB012083FC0195
:1007A00024812F5F248308950F931F93CF93DF93AA
:1007B000EC018B01BC016E5F7F4FC8010E949A0360
:1007C000BE016D5F7F4FC8010E947003BE016B5F69
:1007D0007F4FC801DF91CF911F910F910C94C503FA
:1007E000CF92DF92EF92FF920F931F93CF93DF93FD
:1007F000CDB7DEB7C850D1400FB6F894DEBF0FBEFC
:10080000CDBF7C011D824E8381E090E09A83898375
:100810001C821B82DE011796FB01042F10E0CF0122
:10082000861B970B801791071CF481918D93F7CF4E
:1008300007301105E8F16B01BE01685F7E4FCE0104
:1008400001960E94C503C85FDE4F8881C850D14021
:100850008D3181F5D701ED91FC910680F781E02D76
:10086000BE016F5F7F4FC7010995CA5FDE4F1982D6
:100870001882C650D140BE016A5F7E4FCE010196FC
:100880000E947003CA5FDE4FE880F980C650D140F5
:1008900045E050E060E070E0C6010E94CF01E8163C
:1008A000F90651F481E00730110539F480E005C004
:1008B00082E003C085E001C083E0C85FDE4F0FB671
:1008C000F894DEBF0FBECDBFDF91CF911F910F9186
:1008D000FF90EF90DF90CF900895CF92DF92EF924C
:1008E000FF920F931F93CF93DF93CDB7DEB7C8501E
:1008F000D1400FB6F894DEBF0FBECDBF7C011D8284
:100900004E8381E090E09A8389831C821B82DE0102
:100910001796FB01042F10E0CF01861B970B801761
:1009200091071CF481918D93F7CF06301105E8F102
:100930006B01BE01685F7E4FCE0101960E94C50328
:10094000C85FDE4F8881C850D1408D3281F5D70114
:10095000ED91FC910680F781E02DBE016F5F7F4F26
:10096000C7010995CA5FDE4F19821882C650D1406F
:10097000BE016A5F7E4FCE0101960E947003CA5F7E
:10098000DE4FE880F980C650D14044E050E060E09E
:1009900070E0C6010E94CF01E816F90651F481E02B
:1009A0000630110539F480E005C082E003C085E01F
:1009B00001C083E0C85FDE4F0FB6F894DEBF0FBE04
:1009C000CDBFDF91CF911F910F91FF90EF90DF90FE
:1009D000CF900895FC01848DDF01A80FB11DA35AAB
:1009E000BF4F2C91848D90E001968F739927848F4F
:1009F000A689B7892C93A089B1898C9180648C9346
:100A0000938D848D981306C00288F389E02D808130
:100A10008F7D808308958F929F92AF92BF92CF92E5
:100A2000DF92EF92FF926B017C010E94AA014B01C1
:100A30005C01C114D104E104F104F1F00E94AA01A7
:100A4000DC01CB0188199909AA09BB09883E9340AA
:100A5000A105B10570F321E0C21AD108E108F1083F
:100A600088EE880E83E0981EA11CB11CC114D1042D
:100A7000E104F10419F7DDCFFF90EF90DF90CF9004
:100A8000BF90AF909F908F9008958F929F92AF925A
:100A9000BF92CF92DF92EF92FF920F931F93CF936B
:100AA000DF935C016B017A0180910B01882309F4CB
:100AB0005BC08091D701882309F456C08091D4018E
:100AC00080FF05C08091E00082608093E000E70134
:100AD00010E00AEF83E0882E9AE3992E2097D9F14F
:100AE0000E946E0981110AC0015009F43DC061E005
:100AF00070E080E090E00E940B05F0CF282F30E0FE
:100B0000C217D3070CF48C2F4FB7F8948092E900EA
:100B10009091E80095FF1DC0282F30E0C21BD30B39
:100B2000F601982F915020F081918093F100FACF37
:100B3000C20ED31E112319F09092E80009C08091D3
:100B4000E80085FD06C09092E80011E0209709F0CA
:100B500010E04FBFC3CF1111C3CF5D9884E68093DF
:100B6000D5011E141F0444F081E090E0F501938349
:100B7000828380E090E001C0C701DF91CF911F9197
:100B80000F91FF90EF90DF90CF90BF90AF909F902C
:100B90008F900895CF93DF93CDB7DEB728970FB628
:100BA000F894DEBF0FBECDBF63E070E080E090E060
:100BB0000E940B0588ED91E00E949407892B19F1A2
:100BC00067E571E0CE0101960E94EC090E940A09D6
:100BD00097FD0CC08F83188641E050E0BE01695F2D
:100BE0007F4FCE0101960E949309F0CF4D815E8127
:100BF00069817A818EEF92E00E94930989819A81BE
:100C00000E94FA12D7CF809114038F5F8093140350
:100C100028960FB6F894DEBF0FBECDBFDF91CF91FF
:100C200008950E94A00781110C94CA0508952FB75A
:100C3000F8946091CC017091CD018091CE0190919A
:100C4000CF012FBF08951F920F920FB60F9211245C
:100C50002F933F938F939F93AF93BF938091CC013A
:100C60009091CD01A091CE01B091CF013091CB01F7
:100C700023E0230F2D3720F40196A11DB11D05C0DF
:100C800026E8230F0296A11DB11D2093CB0180936E
:100C9000CC019093CD01A093CE01B093CF01809170
:100CA000D0019091D101A091D201B091D3010196D0
:100CB000A11DB11D8093D0019093D101A093D201C9
:100CC000B093D301BF91AF919F918F913F912F919D
:100CD0000F900FBE0F901F901895FC0190819C30D3
:100CE00080F5818128E830E0281B310987FD3395A4
:100CF000220F331F220F331F621773077CF082818C
:100D000028E532E0281B310987FD3395220F331F78
:100D1000220F331F621773070CF49B012250310915
:100D2000220F331F4FB7F894892F90E0FC01EE0F8C
:100D3000FF1F8E0F9F1FFC01EB53FD4F328321835A
:100D40004FBF08951F920F920FB60F9211242F9349
:100D50003F934F935F936F937F938F939F93AF9343
:100D6000BF93EF93FF938091CA0187FF05C0109254
:100D70008500109284001BC02091CA01022E000C35
:100D8000330B8091E90290E02817390784F48091B1
:100D9000CA01082E000C990BFC01EE0FFF1F8E0FED
:100DA0009F1FFC01EB53FD4F808186FD15C0809194
:100DB000CA018F5F8093CA012091CA01022E000CE4
:100DC000330B8091E90290E028173907C4F4809131
:100DD000CA018C3064F113C08091CA01082E000C46
:100DE000990BFC01EE0FFF1F8E0F9F1FFC01EB53B1
:100DF000FD4F808160E08F730E944701D8CF8091C2
:100E0000840090918500049680349C4918F480E415
:100E10009CE905C080918400909185000496909390
:100E20008900809388008FEF8093CA013BC0209196
:100E30008400309185008091CA01082E000C990B26
:100E4000FC01EE0FFF1F8E0F9F1FFC01EB53FD4FA8
:100E500081819281820F931F9093890080938800F3
:100E60008091CA01082E000C990BFC01EE0FFF1FA8
:100E70008E0F9F1FFC01EB53FD4F808186FF12C038
:100E80008091CA01082E000C990BFC01EE0FFF1F88
:100E90008E0F9F1FFC01EB53FD4F808161E08F732C
:100EA0000E944701FF91EF91BF91AF919F918F9168
:100EB0007F916F915F914F913F912F910F900FBE56
:100EC0000F901F901895FC01538D448D252F30E015
:100ED000842F90E0821B930B541710F0CF96089547
:100EE00001970895FC01918D828D981761F0828D94
:100EF000DF01A80FB11D5D968C91928D9F5F9F734E
:100F0000928F90E008958FEF9FEF0895FC01918DEF
:100F1000828D981731F0828DE80FF11D858D90E05C
:100F200008958FEF9FEF0895FC01918D228D892FF9
:100F300090E0805C9F4F821B91098F7399270895E1
:100F400088ED91E00E94940721E0892B09F420E0CC
:100F5000822F0895EF92FF920F931F93CF93DF9309
:100F6000EC0181E0888F9B8D8C8D981305C0E889FA
:100F7000F989808185FD24C0F62E0B8D10E00F5F6E
:100F80001F4F0F731127E02E8C8DE8120CC00FB687
:100F900007FCFACFE889F989808185FFF5CFCE017A
:100FA0000E94EA04F1CF8B8DFE01E80FF11DE35A98
:100FB000FF4FF0820B8FEA89FB898081806207C036
:100FC000EE89FF896083E889F98980818064808364
:100FD00081E090E0DF91CF911F910F91FF90EF9012
:100FE0000895CF93DF93EC01888D8823C9F0EA89B7
:100FF000FB89808185FD05C0A889B9898C9186FD12
:101000000FC00FB607FCF5CF808185FFF2CFA8890E
:10101000B9898C9185FFEDCFCE010E94EA04E7CF1C
:10102000DF91CF9108951F920F920FB60F92112466
:101030002F933F934F935F936F937F938F939F93E0
:10104000AF93BF93EF93FF9388ED91E00E94EA0482
:10105000FF91EF91BF91AF919F918F917F916F9190
:101060005F914F913F912F910F900FBE0F901F9066
:1010700018951F920F920FB60F9211242F938F93F2
:101080009F93EF93FF93E091E801F091E901808154
:10109000E091EE01F091EF0182FD12C0908180910C
:1010A000F1018F5F8F732091F201821751F0E0916F
:1010B000F101F0E0E852FE4F958F8093F10101C0FD
:1010C0008081FF91EF919F918F912F910F900FBE93
:1010D0000F901F9018950F931F93CF93DF93EC0100
:1010E00088819981009729F02A813B81261737074B
:1010F00088F48B016F5F7F4F0E949213009761F01D
:10110000998388831B830A832C813D81232B11F4CF
:10111000FC01108281E001C080E0DF91CF911F913E
:101120000F910895CF93DF93DC018C918C3008F000
:101130006DC09B013327F901EC5DFE4F8491F901ED
:10114000EB5FFE4F2491222399F030E0220F331FF2
:10115000F901E950FF4FC591D491F901E751FF4FD3
:10116000259134919FB7F894E881E82BE8839FBFDD
:101170008C91E82FF0E09F01220F331FE20FF31F45
:10118000EB53FD4F6F739081907C692B60831196B8
:101190001C92119712961C9212976CE00E944A12B0
:1011A0009CE0899FB001112440E050E09A01260F95
:1011B000371FF901EE0FFF1F2E0F3F1FF901EB53F1
:1011C000FD4F908196FD16C04F5F5F4F4C3051052B
:1011D00069F781110FC01092800082E08093810036
:1011E0001092850010928400B19A80916F00826005
:1011F00080936F00EC91F0E0CF01880F991FE80F0A
:10120000F91FEB53FD4F8081806480838C91DF91C7
:10121000CF9108950F931F930E9417066093E001EA
:101220007093E1018093E2019093E301E091D80192
:10123000F091D9010284F385E02D88ED91E00995C4
:1012400097FF1FC00E9417060091E0011091E10175
:101250002091E2013091E301DC01CB01801B910B75
:10126000A20BB30B0091DC011091DD012091DE0196
:101270003091DF0180179107A207B307B8F28FEF13
:101280009FEF1F910F910895FC018091D70181116B
:1012900003C08FEF9FEF08959FB7F89482E080938B
:1012A000E9002091F20030E01216130614F421E058
:1012B00030E02115310559F0289884E68093D60155
:1012C0008091F10080838091F200882319F09FBF04
:1012D000C90108958BE68093E800F9CF2FB7F89401
:1012E00083E08093E9009091E800892F807295FF58
:1012F00004C09091F20080E4891B2FBF0895809173
:101300006A0381110DC082E08093660384E08093BC
:101310006703109269031092680381E080936A0367
:1013200086E693E00895EF92FF920F931F93CF9379
:10133000DF93FC01248135816115710511F480E092
:1013400019C041155105A9F07B01EC018A01020F7A
:10135000131FB8010E946B08882389F32881398103
:101360008C819D81B701820F931F0E946A141D8397
:101370000C8381E0DF91CF911F910F91FF90EF904F
:101380000895EF92FF920F931F93CF93DF93EC0199
:101390007B018A01BA010E946B0828813981811181
:1013A0000DC02115310519F0C9010E94FA121982E8
:1013B00018821D821C821B821A8206C01D830C8328
:1013C000B701C9010E946A14CE01DF91CF911F912C
:1013D0000F91FF90EF900895FC011182108213820B
:1013E0001282158214826115710551F0FB01019082
:1013F0000020E9F73197AF01461B570B0C94C10948
:1014000008951F920F920FB60F9211248F939F93FE
:101410008091E1009091E100937F9093E10083FF40
:101420000FC01092E90091E09093EB001092EC0055
:1014300092E39093ED001092D70198E09093F00022
:1014400082FF20C093E09093E9009091F2009923ED
:1014500019F09AE39093E8009091D501992339F01F
:101460009091D50191509093D501992389F1909154
:10147000D601992339F09091D60191509093D601DD
:10148000992341F184FF10C08091E2008E7E81603B
:101490008093E2008091E1008F7E8093E100809153
:1014A000D4018E7E806111C080FF16C08091E20061
:1014B0008E7E80618093E2008091E1008E7E809339
:1014C000E1008091D4018E7E81608093D40104C0BC
:1014D0005D9ACDCF289AD6CF9F918F910F900FBE56
:1014E0000F901F90189540917603509177032091AB
:1014F00074033091750342175307B4F49091E800D8
:101500009570E1F39091E80092FD19C08093F1008D
:10151000809176039091770301968F739927892B99
:1015200019F48EEF8093E800809176039091770311
:101530000196909377038093760381E0089580E08D
:101540000895CF92DF92EF92FF920F931F93CF9364
:10155000DF931F92CDB7DEB7182F062FE42E862F0C
:10156000880F8E5F99830E94730A83E00E94730A3A
:10157000F12EC12E9981D92E8C2D8F19801798F4B8
:10158000F601E7FE02C0849101C080810E94730AC7
:10159000182F80E00E94730A8123FFEFCF1ADF0A21
:1015A0008111EACF01C081E00F90DF91CF911F91AF
:1015B0000F91FF90EF90DF90CF900895DF92EF9220
:1015C000FF920F931F93CF93DF93D82E8A017B0155
:1015D000E40EF51EEB01CE15DF0571F0D7FE03C05A
:1015E000FE01849101C088810E94730A21968111B5
:1015F000F2CF8FEF9FEF01C0C801DF91CF911F9114
:101600000F91FF90EF90DF900895615030F020919E
:10161000F100FC0120830196F8CF289884E680939E
:10162000D6010895CF92DF92EF92FF920F931F930E
:10163000CF93DF936C017A018B01C0E0D0E0CE152F
:10164000DF0589F0D8016D918D01D601ED91FC91F6
:101650000190F081E02DC6010995892B11F47E01DE
:1016600002C02196ECCFC701DF91CF911F910F915E
:10167000FF90EF90DF90CF9008950F931F93CF933B
:10168000DF931F92CDB7DEB782E0898342E450E05A
:1016900063E471E080E80E94DE0A0E947F09DC01B9
:1016A00012960D911C9113970115110569F0D8013F
:1016B000ED91FC910280F381E02DBE016F5F7F4FC1
:1016C000C801099597FF07C089810F90DF91CF91DD
:1016D0001F910F910895F80100851185E5CF1F92A4
:1016E0000F920FB60F921124CF92DF92EF92FF92DA
:1016F0000F931F932F933F934F935F936F937F931A
:101700008F939F93AF93BF93EF93FF93CF93DF9309
:10171000CDB7DEB76C97DEBFCDBF1092E9008091E8
:10172000E80083FFEDC168E0CE0145960E94050BFD
:1017300082EF8093E8008D8987FF05C09091E800D3
:1017400090FFFCCF03C09EEF9093E800982F907617
:1017500009F0C6C09E892F89188D91110CC0803860
:1017600029F4809173038093F10002C01092F1007C
:101770001092F10048C1422F50E0512B913051F4AA
:10178000811141C14130510509F03DC18091730380
:101790008D7F0BC0933061F4811135C1413051050B
:1017A00009F031C1809173038260809373032BC170
:1017B000953041F48091E80080FFFCCF20682093B1
:1017C000E30021C1963009F05FC0EB8CFC8C1092D5
:1017D000E9001092770310927603123091F510927F
:1017E0007503109274030E943D0B99E0BE016F5F78
:1017F0007F4FDB01E92F1D92EA95E9F799831A8360
:1018000091E09E8390EA98879AEF998720917603DA
:1018100030917703275F3F4F3C832B838D8310925A
:10182000E9001092770310927603F0927503E0922C
:10183000740349E050E080E00E94DE0A0E943D0B04
:10184000E2C0F0927503E09274030E947F09DC010C
:101850001296ED90FC901397E114F10409F4C0C0C6
:10186000D701ED91FC910480F581E02DBE016B5E06
:101870007F4FC7010995009719F00CF0C4C0C7C08D
:10188000F701E084F184E8CF973009F4C0C09830C4
:1018900021F481E08093F100B6C0993009F0B3C023
:1018A000837009F0B4C0EFE4F1E081E021E036E3B9
:1018B0009081992361F08093E9002093EB0091914E
:1018C0009093EC003093ED008F5F873089F78EE7BF
:1018D0008093EA001092EA008F898093D70193C029
:1018E0008B8D9C8D1092E9001092770310927603F5
:1018F0009093750380937403898D811156C08E89EE
:101900009D89913A59F4813209F081C047E050E055
:1019100064E071E080E00E94DE0A75C0913209F057
:1019200076C0833289F4888D90E0982F88272F899C
:10193000822BA0E0B0E08093000190930101A0937E
:101940000201B09303015FC0803269F48091E80026
:1019500082FFFCCF67E084E091E00E94050B8BEFF3
:101960008093E80006C0823209F04DC08F898093D1
:101970000B0180917203882319F0EEEFFAE002C0A8
:10198000E0E0F8E08091040190910501A09106014A
:10199000B0910701803B9440A105B10509F07BC0DF
:1019A00080910B0180FF93C076C00E947F09DC010B
:1019B00012960D911C9113970115110541F1D80153
:1019C000ED91FC910190F081E02DBE016B5E7F4FA7
:1019D000C8010995811117C0F80100851185ECCF68
:1019E000113009F44EC0133091F48F89882309F423
:1019F00045C0823081F440E860E187EA91E00E94CE
:101A0000A10A882321F08EEF8093E80079C081E25B
:101A10008093EB0075C0813029F440E86BE08BE9DE
:101A200091E0EDCF833099F70E947F09DC01129697
:101A3000ED90FC9013978E010F5F1F4F6801E1142A
:101A4000F10479F0D701ED91FC910680F781E02D4A
:101A5000B801C7010995080F111DF701E084F18451
:101A6000EECFD8011C92F60101900020E9F73197E2
:101A7000BF016C197D0940E0C601C1CF65E871E086
:101A800002C069E871E06115710509F2FB0144913A
:101A900050E080E840CF0FB6F894A89580916000A0
:101AA000886180936000109260000FBEA895EE3FA1
:101AB0002AE0F20739F08091FE0A9091FF0A9183A3
:101AC0008083A1CF1092FF0A1092FE0A9CCFEE3FB6
:101AD0008AE0F80731F0808191819093FF0A80932A
:101AE000FE0A87E797E7918380839BE088E10FB642
:101AF000F894A895809360000FBE9093600083CF08
:101B00006C960FB6F894DEBF0FBECDBFDF91CF91BC
:101B1000FF91EF91BF91AF919F918F917F916F91C5
:101B20005F914F913F912F911F910F91FF90EF90F7
:101B3000DF90CF900F900FBE0F901F901895CF930E
:101B4000DF9387E393E0892B29F485E193E0892BE8
:101B500069F417C0CBE5D3E02697888199810E946C
:101B6000FA1283E0C733D807B9F7EFCFC3E3D3E066
:101B70002697888199810E94FA1283E0C531D8079F
:101B8000B9F78091FE029091FF02DF91CF910C9402
:101B9000FA12CF93DF93CDB7DEB72F970FB6F89435
:101BA000DEBF0FBECDBF789484B5826084BD84B59E
:101BB000816084BD85B5826085BD85B5816085BD48
:101BC00080916E00816080936E0010928100809100
:101BD0008100826080938100809181008160809388
:101BE00081008091800081608093800080919100CD
:101BF0008260809391008091910081608093910038
:101C0000809190008160809390008091C1008460F9
:101C10008093C1008091C10082608093C100809157
:101C2000C10081608093C1008091C3008160809376
:101C3000C3008091C00082608093C0008091C20088
:101C400081608093C20080917A00846080937A00E2
:101C500080917A00826080937A0080917A0081601E
:101C600080937A0080917A00806880937A00109245
:101C7000D701109273031092D4018091D700816034
:101C80008093D70080EA8093D80089B5806189BDB0
:101C900089B5826089BD09B400FEFDCF61E070E0C6
:101CA00080E090E00E940B058091D8008F7C8061DD
:101CB0008093D8008091E000807F8093E000809145
:101CC000E1008E7E8093E1008DE08093E200559AE2
:101CD000209AEEEFFFE7859194918B3F9C4D19F48C
:101CE00081E0809372038FEF9FEF90938202809345
:101CF000810263E070E084EF92E00E94920811E0BC
:101D00001093FB020E9417066093F7027093F8028B
:101D10008093F9029093FA0284EB8093FC0265E0D1
:101D200070E08AEE92E00E9492081093F1020E9405
:101D300017066093ED027093EE028093EF0290938A
:101D4000F00284E195E09093F3028093F202E09137
:101D5000E801F091E90182E08083E091E401F091F3
:101D6000E5011082E091E601F091E70180E18083D6
:101D70001092F001E091EC01F091ED0186E080839A
:101D8000E091EA01F091EB01808180618083E09134
:101D9000EA01F091EB01808188608083E091EA01A3
:101DA000F091EB01808180688083E091EA01F091FD
:101DB000EB0180818F7D808374EB472E512C612C49
:101DC000712C3324339410915D038091FB0288239E
:101DD000A9F00E941706C090F702D090F802E09098
:101DE000F902F090FA02DC01CB018C199D09AE09D1
:101DF000BF094597A105B10508F048C110915E03E0
:101E00008091F1028823E9F10E941706C090ED024B
:101E1000D090EE02E090EF02F090F002DC01CB01F6
:101E20008C199D09AE09BF098997A105B10548F133
:101E30006091F2027091F302610F711D17FD7A95A6
:101E4000643115E0710738F0613D27E0720728F032
:101E500060ED77E002C064E175E07093F302609397
:101E6000F2028AEE92E00E946D063092F1020E9428
:101E700017066093ED027093EE028093EF02909349
:101E8000F00230915F033093040320901303022D7E
:101E900010E08090020390900303A090FE02B090A7
:101EA000FF0242E1249E60011124E12CF12C8114F7
:101EB000910491F0F701EC0DFD1DE95CFC4F608190
:101EC0007181C5013F870E9471143F85009721F001
:101ED0008A199B09019631F40115110581F41092BC
:101EE000FD020DC066E0E60EF11C72E1E716F1049A
:101EF000F1F60115110529F43092FD0202C080E0CF
:101F000001C081E080930503882379F021100DC082
:101F1000000F111FF801313019F4E05EFC4F02C0D0
:101F2000EF5DFC4F83898093130380910A0388231C
:101F300089F00E9417060091060310910703209173
:101F4000080330910903DC01CB01801B910BA20B2C
:101F5000B30B03C080E090E0DC018C019D0140E008
:101F600050E0BA018F83188729873A874B875C87AF
:101F70006D877E87A0900B03B0900C03C0900D037B
:101F8000D0900E03E0900F03F09010030091110326
:101F9000109112032F81388549855A8560E070E0E1
:101FA00080E090E00E945C1259F054F0E09113033D
:101FB000F0E0EE0FFF1FEF5DFC4F8389809313036A
:101FC000E091130380910503882309F45CC01A8211
:101FD00019821C821B821E821D8216E01E9FF00148
:101FE0001124E651FD4F63A574A56115710531F00B
:101FF00047A550A9CE0101960E94C10942E050E0D8
:1020000065E571E0CE0101960E94930969817A81AC
:102010006115710561F0FB0101900020E9F731972E
:10202000AF01461B570B88ED91E00E94120B40E078
:1020300050E067E571E08EEF92E00E94C1091092D6
:10204000050330920A030E941706609306037093FB
:102050000703809308039093090320E120930B0367
:1020600087E280930C0310920D0310920E031092DE
:102070000F03109210031092110310921203898122
:102080009A810E94FA120E9411069DCE8091FC0254
:10209000A12F110FBB0BA80FB11DA53BB10510F06F
:1020A000A4EBB0E0A093FC028091F50298E8C92E61
:1020B000D12CC81AD10887FDD394CC0CDD1CCC0CD4
:1020C000DD1C0D2C000CEE08FF088091F60228E5BF
:1020D00032E0281B310987FD3395220F331F220F71
:1020E000331FA901330F660B770B9A01AB012C1933
:1020F0003D094E095F090E94D711A30192010E9478
:10210000B811CA01B9016C0D7D1D8E1D9F1D84EF94
:1021100092E00E946D063092FB020E9417066093C7
:10212000F7027093F8028093F9029093FA0266CE58
:102130001092DB011092DA0188EE93E0A0E0B0E0AB
:102140008093DC019093DD01A093DE01B093DF0169
:1021500026E131E03093D9012093D8012DEC30E015
:102160003093E5012093E4012CEC30E03093E7015B
:102170002093E60128EC30E03093E9012093E80158
:1021800029EC30E03093EB012093EA012AEC30E0B7
:102190003093ED012093EC012EEC30E03093EF0111
:1021A0002093EE011092F1011092F2011092F301CE
:1021B0001092F401109278021092770280937902C3
:1021C00090937A02A0937B02B0937C0288E291E024
:1021D00090937602809375028FEF9FEF9093820227
:1021E000809381028091E9028C30A0F491E0980FF5
:1021F0009093E9028093EA0290E0FC01EE0FFF1F4A
:102200008E0F9F1FFC01EB53FD4F88EB9BE09283E9
:10221000818303C08FEF8093EA021092ED02109247
:10222000EE021092EF021092F0021092F1028091F1
:10223000E9028C30A0F491E0980F9093E90280932A
:10224000F40290E0FC01EE0FFF1F8E0F9F1FFC01B8
:10225000EB53FD4F88EB9BE09283818303C08FEFAC
:102260008093F4021092F7021092F8021092F90291
:102270001092FA021092FB0267E571E08EEF92E095
:102280000E94EC09109204031092060310920703B7
:10229000109208031092090310920A03109213037C
:1022A0001092140368E571E085E193E00E94EC0967
:1022B00060E771E08BE193E00E94EC0967E571E073
:1022C00081E293E00E94EC0967E571E087E293E028
:1022D0000E94EC0967E571E08DE293E00E94EC0951
:1022E00081E08093330310923403109235031092EF
:1022F000360366E971E087E393E00E94EC0969E93F
:1023000071E08DE393E00E94EC0961EA71E083E4FF
:1023100093E00E94EC096EEA71E089E493E00E9488
:10232000EC096DEB71E08FE493E00E94EC0966E943
:1023300071E085E593E00E94EC098AE391E09093D7
:102340005C0380935B0310925D0310925E03109216
:102350005F0386E491E090936103809360031092A1
:102360006203109264031092630310926503089550
:10237000052E97FB1EF400940E94CF1157FD07D045
:102380000E94191207FC03D04EF40C94CF11509503
:102390004095309521953F4F4F4F5F4F0895909551
:1023A0008095709561957F4F8F4F9F4F08950E9444
:1023B0003B12A59F900DB49F900DA49F800D911D81
:1023C000112408952F923F924F925F926F927F92C5
:1023D0008F929F92AF92BF92CF92DF92EF92FF9235
:1023E0000F931F93CF93DF93CDB7DEB7CA1BDB0BE1
:1023F0000FB6F894DEBF0FBECDBF09942A88398886
:1024000048885F846E847D848C849B84AA84B9848C
:10241000C884DF80EE80FD800C811B81AA81B98198
:10242000CE0FD11D0FB6F894DEBF0FBECDBFED01AC
:102430000895A1E21A2EAA1BBB1BFD010DC0AA1F05
:10244000BB1FEE1FFF1FA217B307E407F50720F01D
:10245000A21BB30BE40BF50B661F771F881F991F98
:102460001A9469F760957095809590959B01AC01E1
:10247000BD01CF010895A29FB001B39FC001A39FEA
:10248000700D811D1124911DB29F700D811D1124AD
:10249000911D0895991B79E004C0991F961708F0C3
:1024A000961B881F7A95C9F780950895EE0FFF1F38
:1024B0000590F491E02D09942A153B054C055D0526
:1024C0006E057F05800791070895CF93DF938230D3
:1024D000910510F482E090E0E0917A03F0917B03A3
:1024E00020E030E0C0E0D0E0309711F14081518130
:1024F00048175907C0F04817590761F48281938142
:10250000209719F09B838A832BC090937B03809341
:102510007A0326C02115310519F04217530718F424
:102520009A01BE01DF01EF010280F381E02DDCCFD3
:102530002115310509F1281B390B2430310590F4A0
:1025400012968D919C9113976115710521F0FB01F5
:102550009383828304C090937B0380937A03FD016D
:10256000329644C0FD01E20FF31F819391932250F4
:1025700031092D933C933AC020917803309179032F
:10258000232B41F420910E0130910F0130937903F8
:102590002093780320910C0130910D012115310514
:1025A00041F42DB73EB74091100150911101241B09
:1025B000350BE0917803F0917903E217F307A0F46B
:1025C0002E1B3F0B2817390778F0AC014E5F5F4F89
:1025D0002417350748F04E0F5F1F5093790340933F
:1025E00078038193919302C0E0E0F0E0CF01DF91A6
:1025F000CF9108950F931F93CF93DF93009709F422
:102600008CC0FC0132971382128200917A031091E0
:102610007B030115110581F420813181820F931F05
:1026200020917803309179032817390779F5F093D1
:102630007903E093780371C0D80140E050E0AE1711
:10264000BF0750F412962D913C911397AD012115BF
:10265000310509F1D901F3CF9D01DA0133832283DA
:1026600060817181860F971F8217930769F4EC01CF
:1026700028813981260F371F2E5F3F4F31832083FA
:102680008A819B8193838283452B29F4F0937B037A
:10269000E0937A0342C01396FC93EE931297ED01F8
:1026A000499159919E01240F351FE217F30771F4E8
:1026B00080819181840F951F029611969C938E9331
:1026C0008281938113969C938E931297E0E0F0E0C1
:1026D000D80112968D919C911397009719F0F801EB
:1026E0008C01F6CF8D919C9198012E5F3F4F820F08
:1026F000931F20917803309179032817390769F4E3
:10270000309729F410927B0310927A0302C013824F
:1027100012821093790300937803DF91CF911F9178
:102720000F910895A0E0B0E0E8E9F3E10C94E61120
:10273000EC01009721F4CB010E946512B8C0FC01A6
:10274000E60FF71F9C0122503109E217F30708F446
:10275000ACC0D9010D911C91119706171707B0F065
:102760000530110508F49FC0C80104978617970724
:1027700008F499C002501109061B170B019311931D
:102780006D937C93CF010E94FA128DC05B01A01A59
:10279000B10A4C01800E911EA0917A03B0917B0387
:1027A00040E050E0E12CF12C109709F44AC0A81544
:1027B000B905D1F56D907C901197630182E0C80E48
:1027C000D11CCA14DB0480F1A3014A195B096A0118
:1027D00082E0C80ED11C1296BC9012971396AC9151
:1027E000B5E0CB16D10440F0B282A383518340837D
:1027F000D9016D937C930AC00E5F1F4FC301800FF8
:10280000911FF90191838083EB2DFA2FE114F104DC
:1028100031F0D7011396FC93EE93129744C0F093D6
:102820007B03E0937A033FC08D919C9111974817E9
:10283000590708F4AC017D0112960D90BC91A02DB2
:10284000B3CF809178039091790388159905E1F4CD
:1028500046175707C8F480910C0190910D0100971D
:1028600041F48DB79EB74091100150911101841B26
:10287000950BE817F907C8F4F0937903E093780310
:10288000F901718360830FC0CB010E9465127C0146
:10289000009759F0A801BE010E946114CE010E9468
:1028A000FA12C70104C0CE0102C080E090E0CDB7AB
:1028B000DEB7EEE00C94021281E090E0F8940C9404
:1028C0008B14FB01DC0102C001900D92415050407D
:1028D000D8F70895FB01DC0101900D920020E1F78B
:1028E0000895FB0151915523A9F0BF01DC014D91E1
:1028F00045174111E1F759F4CD010190002049F04D
:102900004D9140154111C9F3FB014111EFCF81E019
:1029100090E00197089510E0CDEDD0E004C0FE01F5
:102920000E9456122196CE3DD107C9F7F894FFCFE9
:10293000FFFFFFFF00E100000000000000007C033B
:10294000800000000000AA07120B6307F10794073C
:1029500072078607000000000801450528031E01D4
:10296000290150032C03000000000A026D04E0025C
:10297000A903000000006F02F003FC02D40300C1B1
:1029800080810000000D0A0041542B43574C4150F8
:102990003D225243524F565F4C4946544552220005
:1029A00041542B43574A41503D225243524F565FA8
:1029B0004C4946544552222C223030303030303091
:1029C00030222C2222004F4B002B43574C41503ACF
:1029D000005243524F565F4C4946544552005749A6
:1029E000464920434F4E4E454354454400574946BF
:0A29F0004920474F542049500000D1
:00000001FF
