:100000000C94DE000C9406010C9406010C9406017D
:100010000C9406010C9406010C9406010C94060144
:100020000C9406010C9406010C946F0D0C9451096C
:100030000C9406010C9406010C9406010C94060124
:100040000C9406010C9460070C9406010C940601B4
:100050000C9406010C9406010C9406010C94E10624
:100060000C9406010C94A70B0C94810B0C940601C4
:100070000C9406010C9406010C9406010C940601E4
:100080000C9406010C9406010C9406010C940601D4
:100090000C9406010C9406010C9406010C940601C4
:1000A0000C9406010C9406010C940601AF01B201F8
:1000B000A101A501A901D301D301D301B601BA0160
:1000C000BE01C401C801D301CE0100000002000935
:1000D0000F0000030401000C0000000000000000FD
:1000E000000000000000000000080B0002020201F6
:1000F00000090400000102020000052400100105AF
:1001000024010101042402060524060001070581DB
:100110000310004009040100020A00000007050264
:100120000240000007058302400000040309041296
:10013000010002EF02014041233680000101020369
:100140000141726475696E6F204C4C4300417264CA
:1001500075696E6F204C656F6E6172646F00000090
:100160000000250028002B002E00310000000000B8
:10017000240027002A002D00300004040404040396
:100180000405020202020403020202020606060637
:10019000060604040202020404040802011040805E
:1001A000401020408040800802040180402010025E
:1001B0000110801020404020D510E10D11241FBEF9
:1001C000CFEFDAE0DEBFCDBF11E0A0E0B1E0EAECB6
:1001D000F9E202C005900D92AA3CB107D9F723E0DD
:1001E000AAECB1E001C01D92A438B207E1F710E01B
:1001F000CDEDD0E004C02197FE010E94A312CC3DBA
:10020000D107C9F70E940B0E0C94D8140C9400006F
:10021000FC01538D448D252F30E0842F90E0821B0C
:10022000930B541710F0CF96089501970895FC0191
:10023000918D828D981761F0828DDF01A80FB11D1D
:100240005D968C91928D9F5F9F73928F90E0089541
:100250008FEF9FEF0895FC01918D828D981731F0FB
:10026000828DE80FF11D858D90E008958FEF9FEF4F
:100270000895FC01918D228D892F90E0805C9F4F25
:10028000821B91098F7399270895CF93DF931F9253
:10029000CDB7DEB76983DC01ED91FC910280F3817B
:1002A000E02D41E050E0BE016F5F7F4F09950F9058
:1002B000DF91CF91089583E08093E9008091F2006F
:1002C000882319F08AE38093E8000895FC0184856F
:1002D000958597FD0BC09FB7F89482E08093E90065
:1002E0008091F2009FBF90E0019608959FB7F89427
:1002F00082E08093E9008091F2009FBF90E0089532
:10030000089580E090E00895362F90E0FC01E653D8
:10031000FF4F4491FC01E756FE4F2491FC01E65843
:10032000FE4F8491882309F451C04423E1F150E049
:10033000FA013197EF30F105B0F5EA5AFF4F0C940E
:10034000A312909180009F7707C0909180009F7DBD
:1003500003C090918000977F9093800024C094B553
:100360009F7702C094B59F7D94BD1DC09091900071
:100370009F7707C0909190009F7D03C0909190005F
:10038000977F909390000FC09091C0009F7703C01B
:100390009091C0009F7D9093C00005C09091C200D5
:1003A000977F9093C200E82FF0E0EE0FFF1FE25A14
:1003B000FE4FA591B4918FB7F894EC91311103C021
:1003C00020952E2301C02E2B2C938FBF08953FB76D
:1003D000F8948091D0019091D101A091D201B09177
:1003E000D30126B5A89B05C02F3F19F00196A11D8A
:1003F000B11D3FBFBA2FA92F982F8827820F911DBB
:10040000A11DB11DBC01CD0142E0660F771F881F01
:10041000991F4A95D1F70895CF92DF92EF92FF92FC
:10042000FC01C12CD12C76018FEF9FEFC416D506AD
:10043000E606F706E9F02191022E000C330B322F6D
:1004400022278227932728E0DC01AA0FBB1F97FFF2
:1004500006C0CD0131E2832730E1932701C0CD01F1
:10046000215091F72FEFC21AD20AE20AF20ADECF28
:10047000FF90EF90DF90CF900895FC019581DF0110
:10048000A90FB11D16966C939F5F95830895EF9207
:10049000FF920F931F93CF93DF93CDB7DEB7C55075
:1004A000D1400FB6F894DEBF0FBECDBF7C018B01EB
:1004B0001D821E8281E090E09A8389831C821B82C8
:1004C0006DE1CE0101960E943D02D701ED91FC91B4
:1004D0000480F581E02DBE016F5F7F4FC701099554
:1004E00047E050E060E070E0CE0107960E940C0209
:1004F0004B815C8129813A814217530719F0282FDB
:10050000892F922FEE81F0E0369621E030E02C0F1B
:100510003D1FE20FF31F808391838E818E5F8E8358
:10052000FE013796D801282F30E0AD01401B510B5A
:10053000421753071CF491919D93F7CFCB5FDE4F89
:100540000FB6F894DEBF0FBECDBFDF91CF911F91E4
:100550000F91FF90EF900895EF92FF920F931F93EA
:10056000CF93DF93CDB7DEB7C550D1400FB6F89427
:10057000DEBF0FBECDBF7C018B011D821E8281E0DC
:1005800090E09A8389831C821B826DE2CE010196E2
:100590000E943D02D701ED91FC910480F581E02D90
:1005A000BE016F5F7F4FC701099544E050E060E0F6
:1005B00070E0CE0107960E940C024B815C8129817C
:1005C0003A814217530719F0282F892F922FEE8175
:1005D000F0E0369621E030E02C0F3D1FE20FF31FD4
:1005E000808391838E818E5F8E83FE013796D80142
:1005F000282F30E0AD01401B510B421753071CF46C
:1006000091919D93F7CFCB5FDE4F0FB6F894DEBF8D
:100610000FBECDBFDF91CF911F910F91FF90EF9053
:100620000895FB012081FC013581E30FF11D268334
:10063000FC0125812F5F258308950F931F93CF938E
:10064000DF93EC018B01BC016E5F7F4FC8010E94FC
:100650001103BE016D5F7F4FC8010E941103BE01EF
:100660006C5F7F4FC801DF91CF911F910F910C9468
:1006700011030F931F93CF93DF938C01EB01BC0108
:100680006E5F7F4FCE010E941103F8019381848138
:100690004A815B81288139814217530719F0292F3C
:1006A000982F822FED81F0E03696EC0FFD1F90839E
:1006B00081838D818E5F8D83F8016581CE010E94DB
:1006C0003D02B8016A5F7F4FCE010E941103B8015D
:1006D000695F7F4FCE01DF91CF911F910F910C94F5
:1006E00011030E94780C90E00895CF93DF931F923E
:1006F000CDB7DEB7FC018485958597FD05C02FEF4A
:100700003FEF358724870BC0CE0101960E94C30CB2
:10071000019719F4898190E002C08FEF9FEF0F904D
:10072000DF91CF9108950F931F93CF93DF931F9283
:10073000CDB7DEB78C01FC018485958597FF0EC08F
:10074000CE0101960E94C30C019719F4298130E073
:1007500002C02FEF3FEFF80135872487F801848529
:1007600095850F90DF91CF911F910F9108950E9471
:10077000A914CF93DF93FC01DB018481258130E054
:1007800090E0281B390B22303105C8F0EF01C80F6B
:10079000D91F8E819F8111969C938E9322813381E4
:1007A000808191812817390739F08C9111969C919D
:1007B00011979C9311968C9384818E5F8483CF01D3
:1007C000DF91CF910895FC0124813581321749F0E2
:1007D000E20FF11D2681FB012083FC0124812F5FA4
:1007E000248308950F931F93CF93DF93EC018B0124
:1007F000BC016E5F7F4FC8010E94E303BE016D5FC5
:100800007F4FC8010E94E303BE016C5F7F4FC801A8
:10081000DF91CF911F910F910C94E303FC01248190
:100820003581321749F0E20FF11D2681FB0120834B
:10083000FC0124812F5F248308950F931F93CF938E
:10084000DF93EC018B01BC016E5F7F4FC8010E94FA
:10085000E303BE016D5F7F4FC8010E94B903BE0173
:100860006B5F7F4FC8010E940E04BE016A5F7F4F1D
:10087000C8010E94E303BE01695F7F4FC801DF9199
:10088000CF911F910F910C94E303CF92DF92EF92DF
:10089000FF920F931F93CF93DF93CDB7DEB7C8506E
:1008A000D1400FB6F894DEBF0FBECDBF7C011D82D4
:1008B0004E8381E090E09A8389831C821B82DE0153
:1008C0001796FB01042F10E0CF01861B970B8017B2
:1008D00091071CF481918D93F7CF09301105E8F150
:1008E0006B01BE01685F7E4FCE0101960E940E042F
:1008F000C85FDE4F8881C850D1408D3181F5D70166
:10090000ED91FC910680F781E02DBE016F5F7F4F76
:10091000C7010995CA5FDE4F19821882C650D140BF
:10092000BE016A5F7E4FCE0101960E94B903CA5F85
:10093000DE4FE880F980C650D14047E050E060E0EB
:1009400070E0C6010E940C02E816F90651F481E03D
:100950000930110539F480E005C082E003C085E06C
:1009600001C083E0C85FDE4F0FB6F894DEBF0FBE54
:10097000CDBFDF91CF911F910F91FF90EF90DF904E
:10098000CF900895CF92DF92EF92FF920F931F9333
:10099000CF93DF93CDB7DEB7C850D1400FB6F894F0
:1009A000DEBF0FBECDBF7C011D824E8381E090E093
:1009B0009A8389831C821B82DE011796FB01042F18
:1009C00010E0CF01861B970B801791071CF48191D3
:1009D0008D93F7CF06301105E8F16B01BE01685F1A
:1009E0007E4FCE0101960E940E04C85FDE4F8881C3
:1009F000C850D1408D3281F5D701ED91FC91068030
:100A0000F781E02DBE016F5F7F4FC7010995CA5F77
:100A1000DE4F19821882C650D140BE016A5F7E4FF8
:100A2000CE0101960E94B903CA5FDE4FE880F980CB
:100A3000C650D14044E050E060E070E0C6010E9442
:100A40000C02E816F90651F481E00630110539F47C
:100A500080E005C082E003C085E001C083E0C85F9C
:100A6000DE4F0FB6F894DEBF0FBECDBFDF91CF9142
:100A70001F910F91FF90EF90DF90CF900895FC01B0
:100A8000848DDF01A80FB11DA35ABF4F2C91848D17
:100A900090E001968F739927848FA689B7892C934C
:100AA000A089B1898C9180648C93938D848D9813E7
:100AB00006C00288F389E02D80818F7D80830895B0
:100AC000EF92FF920F931F93CF93DF93EC0181E09E
:100AD000888F9B8D8C8D981305C0E889F98980815A
:100AE00085FD24C0F62E0B8D10E00F5F1F4F0F7396
:100AF0001127E02E8C8DE8120CC00FB607FCFACF40
:100B0000E889F989808185FFF5CFCE010E943F05F4
:100B1000F1CF8B8DFE01E80FF11DE35AFF4FF082FC
:100B20000B8FEA89FB898081806207C0EE89FF898B
:100B30006083E889F98980818064808381E090E026
:100B4000DF91CF911F910F91FF90EF900895CF9378
:100B5000DF93EC01888D8823C9F0EA89FB898081C5
:100B600085FD05C0A889B9898C9186FD0FC00FB697
:100B700007FCF5CF808185FFF2CFA889B9898C91D8
:100B800085FFEDCFCE010E943F05E7CFDF91CF91EA
:100B900008958F929F92AF92BF92CF92DF92EF9281
:100BA000FF926B017C010E94E7014B015C01C114C3
:100BB000D104E104F104F1F00E94E701DC01CB0172
:100BC00088199909AA09BB09883E9340A105B10576
:100BD00070F321E0C21AD108E108F10888EE880E0E
:100BE00083E0981EA11CB11CC114D104E104F104DE
:100BF00019F7DDCFFF90EF90DF90CF90BF90AF90CF
:100C00009F908F9008958F929F92AF92BF92CF92B4
:100C1000DF92EF92FF920F931F93CF93DF935C01CC
:100C20006B017A0180910B01882309F45BC08091EC
:100C3000DD01882309F456C08091DA0180FF05C0E8
:100C40008091E00082608093E000E70110E00AEF0D
:100C500083E0882E9AE3992E2097D9F10E94780C90
:100C600081110AC0015009F43DC061E070E080E0EC
:100C700090E00E94C905F0CF282F30E0C217D307BB
:100C80000CF48C2F4FB7F8948092E9009091E80013
:100C900095FF1DC0282F30E0C21BD30BF601982F03
:100CA000915020F081918093F100FACFC20ED31EB3
:100CB000112319F09092E80009C08091E80085FDA9
:100CC00006C09092E80011E0209709F010E04FBFB5
:100CD000C3CF1111C3CF5D9884E68093DB011E144E
:100CE0001F0444F081E090E0F5019383828380E06B
:100CF00090E001C0C701DF91CF911F910F91FF904C
:100D0000EF90DF90CF90BF90AF909F908F9008951D
:100D1000CF93DF93CDB7DEB728970FB6F894DEBF39
:100D20000FBECDBF63E070E080E090E00E94C90597
:100D30008EED91E00E943901892B19F167E571E090
:100D4000CE0101960E945A0D0E94890C97FD0CC09D
:100D50008F83188641E050E0BE01695F7F4FCE016E
:100D600001960E94010DF0CF4D815E8169817A81EB
:100D700084E093E00E94010D89819A810E944713CB
:100D8000D7CF80911A038F5F80931A0328960FB6EE
:100D9000F894DEBF0FBECDBFDF91CF9108950E94C2
:100DA000470981110C94880608952FB7F894609133
:100DB000CC017091CD018091CE019091CF012FBFD8
:100DC00008951F920F920FB60F9211242F933F9305
:100DD0008F939F93AF93BF938091CC019091CD015E
:100DE000A091CE01B091CF013091CB0123E0230F30
:100DF0002D3720F40196A11DB11D05C026E8230F53
:100E00000296A11DB11D2093CB018093CC0190933C
:100E1000CD01A093CE01B093CF018091D0019091EC
:100E2000D101A091D201B091D3010196A11DB11DB4
:100E30008093D0019093D101A093D201B093D301BC
:100E4000BF91AF919F918F913F912F910F900FBEC6
:100E50000F901F901895FC0190819C3080F5818146
:100E600028E830E0281B310987FD3395220F331F16
:100E7000220F331F621773077CF0828128E532E06E
:100E8000281B310987FD3395220F331F220F331F93
:100E9000621773070CF49B0122503109220F331F94
:100EA0004FB7F894892F90E0FC01EE0FFF1F8E0FD3
:100EB0009F1FFC01E553FD4F328321834FBF0895EF
:100EC0001F920F920FB60F9211242F933F934F93BF
:100ED0005F936F937F938F939F93AF93BF93EF93A2
:100EE000FF938091CA0187FF05C010928500109280
:100EF00084001BC02091CA01022E000C330B80918C
:100F0000EF0290E02817390784F48091CA01082E77
:100F1000000C990BFC01EE0FFF1F8E0F9F1FFC01B1
:100F2000E553FD4F808186FD15C08091CA018F5F1A
:100F30008093CA012091CA01022E000C330B8091CC
:100F4000EF0290E028173907C4F48091CA018C3071
:100F500064F113C08091CA01082E000C990BFC01AA
:100F6000EE0FFF1F8E0F9F1FFC01E553FD4F808189
:100F700060E08F730E948401D8CF809184009091AB
:100F80008500049680349C4918F480E49CE905C0EF
:100F900080918400909185000496909389008093BD
:100FA00088008FEF8093CA013BC02091840030916C
:100FB00085008091CA01082E000C990BFC01EE0FF0
:100FC000FF1F8E0F9F1FFC01E553FD4F8181928112
:100FD000820F931F90938900809388008091CA01AB
:100FE000082E000C990BFC01EE0FFF1F8E0F9F1FA8
:100FF000FC01E553FD4F808186FF12C08091CA013C
:10100000082E000C990BFC01EE0FFF1F8E0F9F1F87
:10101000FC01E553FD4F808161E08F730E948401E4
:10102000FF91EF91BF91AF919F918F917F916F91C0
:101030005F914F913F912F910F900FBE0F901F9096
:1010400018950F931F93CF93DF93FC0124812223E4
:1010500061F0EC010E94D506088119812A813B814B
:10106000601B710B820B930B03C060E070E0CB013F
:10107000DF91CF911F910F910895CF93DF93EC01F2
:1010800081E08C830E94D506688379838A839B8361
:10109000DF91CF9108954091D6015091D7012091D1
:1010A000D4013091D50142175307B4F49091E80070
:1010B0009570E1F39091E80092FD19C08093F100E2
:1010C0008091D6019091D70101968F739927892B32
:1010D00019F48EEF8093E8008091D6019091D701AA
:1010E00001969093D7018093D60181E0089580E026
:1010F0000895CF92DF92EF92FF920F931F93CF93B9
:10110000DF931F92CDB7DEB7182F062FE42E862F60
:10111000880F8E5F99830E944B0883E00E944B08E2
:10112000F12EC12E9981D92E8C2D8F19801798F40C
:10113000F601E7FE02C0849101C080810E944B0845
:10114000182F80E00E944B088123FFEFCF1ADF0A9F
:101150008111EACF01C081E00F90DF91CF911F9103
:101160000F91FF90EF90DF90CF900895DF92EF9274
:10117000FF920F931F93CF93DF93D82E8A017B01A9
:10118000E40EF51EEB01CE15DF0571F0D7FE03C0AE
:10119000FE01849101C088810E944B082196811133
:1011A000F2CF8FEF9FEF01C0C801DF91CF911F9168
:1011B0000F91FF90EF90DF900895615030F02091F3
:1011C000F100FC0120830196F8CF289884E68093F3
:1011D000DC010895CF92DF92EF92FF920F931F935D
:1011E000CF93DF936C017A018B01C0E0D0E0CE1584
:1011F000DF0589F0D8016D918D01D601ED91FC914B
:101200000190F081E02DC6010995892B11F47E0132
:1012100002C02196ECCFC701DF91CF911F910F91B2
:10122000FF90EF90DF90CF9008950F931F93CF938F
:10123000DF931F92CDB7DEB782E0898342E450E0AE
:1012400069EE70E080E80E94B6080E94ED0CDC01B7
:1012500012960D911C9113970115110569F0D80193
:10126000ED91FC910280F381E02DBE016F5F7F4F15
:10127000C801099597FF07C089810F90DF91CF9131
:101280001F910F910895F80100851185E5CF8EED2E
:1012900091E00E94390121E0892B09F420E0822F9E
:1012A00008951F920F920FB60F921124CF92DF92E2
:1012B000EF92FF920F931F932F933F934F935F9360
:1012C0006F937F938F939F93AF93BF93EF93FF930E
:1012D000CF93DF93CDB7DEB76C97DEBFCDBF109253
:1012E000E9008091E80083FFEDC168E0CE014596FA
:1012F0000E94DD0882EF8093E8008D8987FF05C09A
:101300009091E80090FFFCCF03C09EEF9093E8001F
:10131000982F907609F0C6C09E892F89188D91115B
:101320000CC0803829F48091D9018093F10002C06B
:101330001092F1001092F10048C1422F50E0512B61
:10134000913051F4811141C14130510509F03DC145
:101350008091D9018D7F0BC0933061F4811135C12B
:101360004130510509F031C18091D90182608093EB
:10137000D9012BC1953041F48091E80080FFFCCF6A
:1013800020682093E30021C1963009F05FC0EB8C08
:10139000FC8C1092E9001092D7011092D601123005
:1013A00091F51092D5011092D4010E94150999E08F
:1013B000BE016F5F7F4FDB01E92F1D92EA95E9F7D0
:1013C00099831A8391E09E8390EA98879AEF998790
:1013D0002091D6013091D701275F3F4F3C832B836B
:1013E0008D831092E9001092D7011092D601F092ED
:1013F000D501E092D40149E050E080E00E94B608B7
:101400000E941509E2C0F092D501E092D4010E9439
:10141000ED0CDC011296ED90FC901397E114F104B1
:1014200009F4C0C0D701ED91FC910480F581E02D55
:10143000BE016B5E7F4FC7010995009719F00CF054
:10144000C4C0C7C0F701E084F184E8CF973009F445
:10145000C0C0983021F481E08093F100B6C099308B
:1014600009F0B3C0837009F0B4C0E3E1F1E081E0BA
:1014700021E036E39081992361F08093E900209385
:10148000EB0091919093EC003093ED008F5F8730EB
:1014900089F78EE78093EA001092EA008F898093A3
:1014A000DD0193C08B8D9C8D1092E9001092D701C5
:1014B0001092D6019093D5018093D401898D81112A
:1014C00056C08E899D89913A59F4813209F081C0C4
:1014D00047E050E064E071E080E00E94B60875C02B
:1014E000913209F076C0833289F4888D90E0982F8C
:1014F00088272F89822BA0E0B0E080930001909391
:101500000101A0930201B09303015FC0803269F42E
:101510008091E80082FFFCCF67E084E091E00E94C8
:10152000DD088BEF8093E80006C0823209F04DC0E1
:101530008F8980930B018091D801882319F0EEEFF9
:10154000FAE002C0E0E0F8E080910401909105012A
:10155000A0910601B0910701803B9440A105B1051F
:1015600009F07BC080910B0180FF93C076C00E9480
:10157000ED0CDC0112960D911C91139701151105CC
:1015800041F1D801ED91FC910190F081E02DBE0177
:101590006B5E7F4FC8010995811117C0F801008566
:1015A0001185ECCF113009F44EC0133091F48F89BE
:1015B000882309F445C0823081F440E860E18DE47D
:1015C00091E00E947908882321F08EEF8093E80053
:1015D00079C081E28093EB0075C0813029F440E846
:1015E0006BE081E491E0EDCF833099F70E94ED0C40
:1015F000DC011296ED90FC9013978E010F5F1F4F48
:101600006801E114F10479F0D701ED91FC910680B5
:10161000F781E02DB801C7010995080F111DF701E9
:10162000E084F184EECFD8011C92F60101900020F5
:10163000E9F73197BF016C197D0940E0C601C1CFC0
:101640006BE271E002C06FE271E06115710509F2B1
:10165000FB01449150E080E840CF0FB6F894A89584
:1016600080916000886180936000109260000FBEDE
:10167000A895EE3F2AE0F20739F08091FE0A90919A
:10168000FF0A91838083A1CF1092FF0A1092FE0A75
:101690009CCFEE3F8AE0F80731F0808191819093F2
:1016A000FF0A8093FE0A87E797E7918380839BE098
:1016B00088E10FB6F894A895809360000FBE9093D0
:1016C000600083CF6C960FB6F894DEBF0FBECDBF1F
:1016D000DF91CF91FF91EF91BF91AF919F918F914A
:1016E0007F916F915F914F913F912F911F910F913A
:1016F000FF90EF90DF90CF900F900FBE0F901F9054
:1017000018951F920F920FB60F9211242F933F93AB
:101710004F935F936F937F938F939F93AF93BF93F9
:10172000EF93FF938EED91E00E943F05FF91EF91C3
:10173000BF91AF919F918F917F916F915F914F91E9
:101740003F912F910F900FBE0F901F9018951F92F1
:101750000F920FB60F9211242F938F939F93EF93B5
:10176000FF93E091EE01F091EF018081E091F401AF
:10177000F091F50182FD12C090818091F7018F5F99
:101780008F732091F801821751F0E091F701F0E09A
:10179000E252FE4F958F8093F70101C08081FF9147
:1017A000EF919F918F912F910F900FBE0F901F90EF
:1017B00018950F931F93CF93DF93EC018881998144
:1017C000009729F02A813B812617370788F48B017F
:1017D0006F5F7F4F0E94DF13009761F099838883CA
:1017E0001B830A832C813D81232B11F4FC01108281
:1017F00081E001C080E0DF91CF911F910F910895AA
:10180000CF93DF93DC018C918C3008F06DC09B018D
:101810003327F901E756FE4F8491F901E658FE4F50
:101820002491222399F030E0220F331FF901E4596B
:10183000FE4FC591D491F901E25AFE4F25913491A2
:101840009FB7F894E881E82BE8839FBF8C91E82F3D
:10185000F0E09F01220F331FE20FF31FE553FD4F0E
:101860006F739081907C692B608311961C92119705
:1018700012961C9212976CE00E9497129CE0899F2E
:10188000B001112440E050E09A01260F371FF90102
:10189000EE0FFF1F2E0F3F1FF901E553FD4F908103
:1018A00096FD16C04F5F5F4F4C30510569F78111AF
:1018B0000FC01092800082E080938100109285001A
:1018C00010928400B19A80916F00826080936F00C3
:1018D000EC91F0E0CF01880F991FE80FF91FE55355
:1018E000FD4F8081806480838C91DF91CF9108953A
:1018F0002FB7F89483E08093E9009091E800892F56
:10190000807295FF04C09091F20080E4891B2FBF84
:1019100008950F931F930E94D5066093E60170937C
:10192000E7018093E8019093E901E091DE01F091F5
:10193000DF010284F385E02D8EED91E0099597FF9C
:101940001FC00E94D5060091E6011091E701209189
:10195000E8013091E901DC01CB01801B910BA20B66
:10196000B30B0091E2011091E3012091E401309169
:10197000E50180179107A207B307B8F28FEF9FEF39
:101980001F910F910895FC018091DD01811103C029
:101990008FEF9FEF08959FB7F89482E08093E9005E
:1019A0002091F20030E01216130614F421E030E02A
:1019B0002115310559F0289884E68093DC01809147
:1019C000F10080838091F200882319F09FBFC90144
:1019D00008958BE68093E800F9CF80917803811118
:1019E0000DC082E08093740384E0809375031092AD
:1019F00077031092760381E08093780384E793E085
:101A00000895EF92FF920F931F93CF93DF93FC0102
:101A1000248135816115710511F480E019C04115EB
:101A20005105A9F07B01EC018A01020F131FB801D7
:101A30000E94D90B882389F3288139818C819D816B
:101A4000B701820F931F0E94B7141D830C8381E09E
:101A5000DF91CF911F910F91FF90EF900895EF923A
:101A6000FF920F931F93CF93DF93EC017B018A01C9
:101A7000BA010E94D90B2881398181110DC021152D
:101A8000310519F0C9010E944713198218821D827D
:101A90001C821B821A8206C01D830C83B701C901F8
:101AA0000E94B714CE01DF91CF911F910F91FF904B
:101AB000EF900895FC011182108213821282158228
:101AC00014826115710551F0FB0101900020E9F7C6
:101AD0003197AF01461B570B0C942F0D08951F92A1
:101AE0000F920FB60F9211248F939F938091E10074
:101AF0009091E100937F9093E10083FF0FC01092DB
:101B0000E90091E09093EB001092EC0092E3909347
:101B1000ED001092DD0198E09093F00082FF20C06C
:101B200093E09093E9009091F200992319F09AE3E1
:101B30009093E8009091DB01992339F09091DB01BB
:101B400091509093DB01992389F19091DC019923C5
:101B500039F09091DC0191509093DC01992341F18F
:101B600084FF10C08091E2008E7E81608093E2004D
:101B70008091E1008F7E8093E1008091DA018E7E7A
:101B8000806111C080FF16C08091E2008E7E80616E
:101B90008093E2008091E1008E7E8093E10080914D
:101BA000DA018E7E81608093DA0104C05D9ACDCF28
:101BB000289AD6CF9F918F910F900FBE0F901F90B4
:101BC0001895CF93DF938DE393E0892B29F48BE174
:101BD00093E0892B69F417C0C1E6D3E0269788818A
:101BE00099810E94471383E0CD33D807B9F7EFCF2F
:101BF000C9E3D3E02697888199810E94471383E047
:101C0000CB31D807B9F78091040390910503DF9198
:101C1000CF910C944713CF93DF93CDB7DEB7A8973E
:101C20000FB6F894DEBF0FBECDBF789484B5826046
:101C300084BD84B5816084BD85B5826085BD85B570
:101C4000816085BD80916E00816080936E001092EE
:101C50008100809181008260809381008091810069
:101C600081608093810080918000816080938000FA
:101C700080919100826080939100809191008160B9
:101C8000809391008091900081608093900080917A
:101C9000C10084608093C1008091C1008260809304
:101CA000C1008091C10081608093C1008091C30018
:101CB00081608093C3008091C00082608093C000E7
:101CC0008091C20081608093C20080917A0084601C
:101CD00080937A0080917A00826080937A0080916C
:101CE0007A00816080937A0080917A008068809386
:101CF0007A001092DD011092D9011092DA018091E0
:101D0000D70081608093D70080EA8093D80089B59E
:101D1000806189BD89B5826089BD09B400FEFDCFAF
:101D200061E070E080E090E00E94C9058091D800F9
:101D30008F7C80618093D8008091E000807F8093C9
:101D4000E0008091E1008E7E8093E1008DE0809341
:101D5000E200559A209AEEEFFFE7859194918B3F30
:101D60009C4D19F481E08093D8018FEF9FEF909301
:101D700088028093870263E070E08AEF92E00E941D
:101D8000000C11E0109301030E94D5066093FD0240
:101D90007093FE028093FF029093000384EB809384
:101DA000020365E070E080EF92E00E94000C109367
:101DB000F7020E94D5066093F3027093F4028093B9
:101DC000F5029093F60280EB94E09093F9028093F1
:101DD000F802E091EE01F091EF0182E08083E09162
:101DE000EA01F091EB011082E091EC01F091ED013C
:101DF00080E180831092F601E091F201F091F3010D
:101E000086E08083E091F001F091F10180818061B2
:101E10008083E091F001F091F101808188608083FE
:101E2000E091F001F091F101808180688083E09180
:101E3000F001F091F10180818F7D80831093720316
:101E40000E94D50660936E0370936F0380937003B6
:101E50009093710364EB262E312C412C512C9E0162
:101E60002F5F3F4F4901109163038DEF92E00E9475
:101E70002108653171058105910508F449C08091FB
:101E80000203A12F110FBB0BA80FB11DA53BB1057C
:101E900010F0A4EBB0E0A09302038091FB0238E8BD
:101EA000C32ED12CC81AD10887FDD394CC0CDD1CCD
:101EB000CC0CDD1C0D2C000CEE08FF088091FC0200
:101EC00028E532E0281B310987FD3395220F331FA7
:101ED000220F331FA901330F660B770B9A01AB0159
:101EE0002C193D094E095F090E942412A20191019B
:101EF0000E940512CA01B9016C0D7D1D8E1D9F1D2A
:101F00008AEF92E00E942B078DEF92E00E943D083D
:101F10001091640383EF92E00E94210869327105F9
:101F20008105910508F16091F8027091F902610F45
:101F3000711D17FD7A95603B34E0730738F0613D01
:101F400047E0740728F060ED77E002C060EB74E0D2
:101F50007093F9026093F80280EF92E00E942B07E1
:101F600083EF92E00E943D083091650330930A03AD
:101F700020911903022F10E0A0900803B0900903EC
:101F8000C0900403D090050352E1259F3001112435
:101F9000E12CF12CA114B104A1F0F701E60DF71D1D
:101FA000E35CFC4F60817181C60128A73FA30E94BA
:101FB000BE1428A53FA1009721F08C199D09019618
:101FC00031F40115110589F4109203030EC0F6E0F7
:101FD000EF0EF11C42E1E416F104E1F601151105E2
:101FE00031F451E05093030302C080E001C081E06E
:101FF00080930B03882379F021110DC0000F111F6E
:10200000F801313019F4EA5DFC4F02C0E95DFC4F84
:102010008389809319038CE093E00E9421087B015F
:102020008C0120E030E0A9016F8FF8A209A31AA368
:102030002BA33CA34DA35EA3A0901103B090120369
:10204000C0901303D0901403E0901503F090160392
:1020500000911703109118032F8D38A149A15AA19F
:1020600060E070E080E090E00E94A91259F054F026
:10207000E0911903F0E0EE0FFF1FE95DFC4F83894B
:1020800080931903E091190380910B03882309F4CD
:1020900053C01A8219821C821B821E821D8286E016
:1020A000F82EFE9EF0011124E051FD4F63A574A5AA
:1020B0006115710529F047A550A9C4010E942F0D93
:1020C00042E050E065E571E0C4010E94010D6981C4
:1020D0007A816115710561F0FB0101900020E9F73B
:1020E0003197AF01461B570B8EED91E00E94EA0835
:1020F00040E050E067E571E084E093E00E942F0D3E
:1021000010920B038CE093E00E943D0800E10093E5
:10211000110317E210931203109213031092140389
:1021200010921503109216031092170310921803C1
:1021300089819A810E9447138091020380936803EA
:102140008091F8029091F90290936A038093690359
:102150008091190380936B0380911A0380936C0321
:102160008091730380936D038EE693E00E942108B3
:102170006536710581059105A8F08EE1F401119293
:102180008A95E9F7B40186E693E00E944702482F5A
:1021900050E0B4018BE792E00E9403068EE693E0E4
:1021A0000E943D080E94CF065ECE1092E10110927F
:1021B000E00188EE93E0A0E0B0E08093E20190932C
:1021C000E301A093E401B093E5012DE131E0309308
:1021D000DF012093DE012DEC30E03093EB01209302
:1021E000EA012CEC30E03093ED012093EC0128EC77
:1021F00030E03093EF012093EE0129EC30E0309392
:10220000F1012093F0012AEC30E03093F3012093A8
:10221000F2012EEC30E03093F5012093F40110929E
:10222000F7011092F8011092F9011092FA01109240
:102230007E0210927D0280937F0290938002A09391
:102240008102B09382028FE291E090937C028093AE
:102250007B028FEF9FEF909388028093870280919B
:10226000EF028C30A0F491E0980F9093EF028093EE
:10227000F00290E0FC01EE0FFF1F8E0F9F1FFC018C
:10228000E553FD4F88EB9BE09283818303C08FEF82
:102290008093F0021092F3021092F4021092F50271
:1022A0001092F6021092F7028091EF028C30A0F4A7
:1022B00091E0980F9093EF028093FA0290E0FC0176
:1022C000EE0FFF1F8E0F9F1FFC01E553FD4F88EBA4
:1022D0009BE09283818303C08FEF8093FA02109278
:1022E000FD021092FE021092FF0210920003109263
:1022F000010367E571E084E093E00E945A0D1092BB
:102300000A0310920C0310920D0310920E03109208
:102310000F03109210031092190310921A0368E52C
:1023200071E08BE193E00E945A0D60E771E081E279
:1023300093E00E945A0D67E571E087E293E00E9406
:102340005A0D67E571E08DE293E00E945A0D67E552
:1023500071E083E393E00E945A0D81E0809339039A
:1023600010923A0310923B0310923C0366E971E02D
:102370008DE393E00E945A0D69E971E083E493E0F4
:102380000E945A0D61EA71E089E493E00E945A0DBF
:102390006EEA71E08FE493E00E945A0D6DEB71E0FC
:1023A00085E593E00E945A0D66E971E08BE593E0C4
:1023B0000E945A0D81E491E090936203809361033F
:1023C0001092630310926403109265038DE491E010
:1023D00090936703809366031092680310926A03D8
:1023E0001092690310926B0310926C0310926D03AC
:1023F00010926E0310926F0310927003109271038B
:1024000010927203109273030895052E97FB1EF429
:1024100000940E941C1257FD07D00E94661207FC10
:1024200003D04EF40C941C12509540953095219594
:102430003F4F4F4F5F4F08959095809570956195F0
:102440007F4F8F4F9F4F08950E948812A59F900D38
:10245000B49F900DA49F800D911D112408952F927B
:102460003F924F925F926F927F928F929F92AF9224
:10247000BF92CF92DF92EF92FF920F931F93CF9371
:10248000DF93CDB7DEB7CA1BDB0B0FB6F894DEBF08
:102490000FBECDBF09942A88398848885F846E842E
:1024A0007D848C849B84AA84B984C884DF80EE8078
:1024B000FD800C811B81AA81B981CE0FD11D0FB681
:1024C000F894DEBF0FBECDBFED010895A1E21A2E34
:1024D000AA1BBB1BFD010DC0AA1FBB1FEE1FFF1FC8
:1024E000A217B307E407F50720F0A21BB30BE40B18
:1024F000F50B661F771F881F991F1A9469F760955F
:102500007095809590959B01AC01BD01CF01089518
:10251000A29FB001B39FC001A39F700D811D112424
:10252000911DB29F700D811D1124911D0895991B5D
:1025300079E004C0991F961708F0961B881F7A95BA
:10254000C9F780950895EE0FFF1F0590F491E02DD7
:1025500009942A153B054C055D056E057F0580072E
:1025600091070895CF93DF938230910510F482E0B4
:1025700090E0E0918203F091830320E030E0C0E03E
:10258000D0E0309711F14081518148175907C0F0D0
:102590004817590761F482819381209719F09B8332
:1025A0008A832BC0909383038093820326C02115D6
:1025B000310519F04217530718F49A01BE01DF01E3
:1025C000EF010280F381E02DDCCF2115310509F107
:1025D000281B390B2430310590F412968D919C9173
:1025E00013976115710521F0FB019383828304C069
:1025F0009093830380938203FD01329644C0FD01D2
:10260000E20FF31F81939193225031092D933C9354
:102610003AC02091800330918103232B41F4209113
:102620000E0130910F01309381032093800320919C
:102630000C0130910D012115310541F42DB73EB744
:102640004091100150911101241B350BE091800342
:10265000F0918103E217F307A0F42E1B3F0B28171C
:10266000390778F0AC014E5F5F4F2417350748F00B
:102670004E0F5F1F5093810340938003819391938A
:1026800002C0E0E0F0E0CF01DF91CF9108950F9319
:102690001F93CF93DF93009709F48CC0FC0132970E
:1026A0001382128200918203109183030115110598
:1026B00081F420813181820F931F2091800330911A
:1026C00081032817390779F5F0938103E09380039C
:1026D00071C0D80140E050E0AE17BF0750F4129629
:1026E0002D913C911397AD012115310509F1D901C7
:1026F000F3CF9D01DA013383228360817181860FDC
:10270000971F8217930769F4EC0128813981260FFE
:10271000371F2E5F3F4F318320838A819B819383B4
:102720008283452B29F4F0938303E093820342C014
:102730001396FC93EE931297ED01499159919E01E6
:10274000240F351FE217F30771F480819181840F04
:10275000951F029611969C938E9382819381139676
:102760009C938E931297E0E0F0E0D80112968D9141
:102770009C911397009719F0F8018C01F6CF8D9179
:102780009C9198012E5F3F4F820F931F20918003F1
:10279000309181032817390769F4309729F4109292
:1027A00083031092820302C013821282109381036A
:1027B00000938003DF91CF911F910F910895A0E0C6
:1027C000B0E0E5EEF3E10C943312EC01009721F454
:1027D000CB010E94B212B8C0FC01E60FF71F9C01AA
:1027E00022503109E217F30708F4ACC0D9010D916A
:1027F0001C91119706171707B0F00530110508F462
:102800009FC0C80104978617970708F499C0025023
:102810001109061B170B019311936D937C93CF0144
:102820000E9447138DC05B01A01AB10A4C01800EB3
:10283000911EA0918203B091830340E050E0E12C0F
:10284000F12C109709F44AC0A815B905D1F56D907F
:102850007C901197630182E0C80ED11CCA14DB047E
:1028600080F1A3014A195B096A0182E0C80ED11CFC
:102870001296BC9012971396AC91B5E0CB16D1048A
:1028800040F0B282A38351834083D9016D937C933E
:102890000AC00E5F1F4FC301800F911FF901918382
:1028A0008083EB2DFA2FE114F10431F0D701139658
:1028B000FC93EE93129744C0F0938303E09382035A
:1028C0003FC08D919C9111974817590708F4AC01AE
:1028D0007D0112960D90BC91A02DB3CF8091800305
:1028E0009091810388159905E1F446175707C8F4BC
:1028F00080910C0190910D01009741F48DB79EB726
:102900004091100150911101841B950BE817F907B4
:10291000C8F4F0938103E0938003F901718360832D
:102920000FC0CB010E94B2127C01009759F0A801A0
:10293000BE010E94AE14CE010E944713C70104C01D
:10294000CE0102C080E090E0CDB7DEB7EEE00C949F
:102950004F1281E090E0F8940C94D814FB01DC0154
:1029600002C001900D9241505040D8F70895FB01EC
:10297000DC0101900D920020E1F70895FB015191D7
:102980005523A9F0BF01DC014D9145174111E1F735
:1029900059F4CD010190002049F04D9140154111AD
:1029A000C9F3FB014111EFCF81E090E00197089559
:1029B00010E0CDEDD0E004C0FE010E94A3122196EC
:0A29C000CE3DD107C9F7F894FFCF10
:1029CA00FFFFFFFF00E10000000000000000840399
:1029DA00800000C18081000000000000006005EA5C
:1029EA00080801A705390117012B0100000000455D
:1029FA0001030671035B016601750393030000007E
:102A0A0000AC02C2041D03F20300000000470245A5
:102A1A000439031D040D0A0041542B43574C4150FD
:102A2A003D225243524F565F4C494654455222006A
:102A3A0041542B43574A41503D225243524F565F0D
:102A4A004C4946544552222C2230303030303030F6
:102A5A0030222C2222004F4B002B43574C41503A34
:102A6A00005243524F565F4C49465445520057490B
:102A7A00464920434F4E4E45435445440057494624
:0A2A8A004920474F54204950000036
:00000001FF
